:020000040000FA
:200000000C946E010C9496010C9496010C9496010C9496010C9496010C9496010C94960150
:200020000C9496010C9496010C947E0F0C944A0E0C9496010C9496010C9496010C94960151
:200040000C94F3050C9496010C9496010C9496010C9455060C9496010C9496010C94A208B0
:200060000C9496010C9496010C9496010C9496010C9496010C9496010C9496010C949601C8
:200080000C9496010C9496010C9496010C9496010C9496010C9496010C9496010C949601A8
:2000A0000C9496010C9496010C949601EF09F209E109E509EB09130A130A130AF609FA0983
:2000C000FE09040A080A130A0E0A070605040100080A0B0C0D090000000200090F00000351
:2000E0000D01000C0000000000000000000000000000000000000408020110408040102097
:200100004080408008020401804020100201108010204040200104040404040304050202D8
:200120000202040302020202060606060606040402020204040200000000250028002B00F8
:200140002E00310000000000240027002A002D003000080B00020202010009040000010244
:200160000200000524001001052401010104240206052406000107058103100040090401C9
:2001800000020A000000070502024000000705830240000000C18081C11201000202000098
:2001A000400912B51A00010102000112010002000000400912B51A000101020001417261B8
:2001C00063686E6964204C616273005473756E616D69000403090400000000000000002A58
:2001E0002B280000000000000000000000000000000000000000002C9EB4A0A1A2A434A6CD
:20020000A7A5AE362D3738271E1F20212223242526B333B62EB7B89F8485868788898A8BA5
:200220008C8D8E8F909192939495969798999A9B9C9D2F3130A3AD350405060708090A0BFC
:200240000C0D0E0F101112131415161718191A1B1C1DAFB1B0B50009040200010300000055
:200260000921010100012265000705840340000105010902A1010901A100850105091901EA
:2002800029031500250195037501810295017505810305010930093109381581257F750861
:2002A00095038106C0C005010906A1018502050719E029E7150025017501950881029501E5
:2002C0007508810395067508150025650507190029658100C0009107460B1F1111241FBE47
:2002E000CFEFDAE0DEBFCDBF13E0A0E0B1E0E6EAFBE202C005900D92A032B107D9F724E058
:20030000A0E2B3E001C01D92A03AB207E1F712E0CCEDD2E004C02297FE010E94DA12C63D83
:20032000D107C9F70E94640B0C94D1150C9400001F93CF93DF936FE271E08AE394E00E9443
:20034000B50BCEE0D0E011E2FE0110935700649140E150E08AE394E00E944A0C2196C831C4
:20036000D10591F78AE394E00E94BE0B81E0DF91CF911F91089587E10E94A609DC0120E0BF
:2003800032E746E050E00E94DE12845E9C40089586E10E94A609DC0120E032E746E050E0FD
:2003A0000E94DE12845E9C40089583E10E94A609BC01882777FD8095982F0E94C71120E065
:2003C00030E040E85AE30E94531208951F93CF93DF93EC01CB01BA0111E02E85121B1E8794
:2003E00020E030E040E85DE40E94531220E034E244E75BE40E942C110E9499119B01AC0189
:20040000612FCE0108960E94B9076E8585E0DF91CF911F910C944D0A0F931F93CF93DF9386
:20042000CDB7DEB7A0970FB6F894DEBF0FBECDBF7F936F935F934F939F938F938BE391E00A
:200440009F938F938E010F5F1F4F1F930F930E940013B8018AE394E00E94D20B0FB6F8946A
:20046000DEBF0FBECDBFA0960FB6F894DEBF0FBECDBFDF91CF911F910F9108954F925F927A
:200480006F927F928F929F92AF92BF92CF92DF92EF92FF920F931F93CF93DF93EC014A0122
:2004A0005B01280139010E940C02B301A2014C195D096E097F094C0C5D1C6E1C7F1C84161C
:2004C0009506A606B7062CF0481459046A047B0414F57F926F925F924F927F936F935F9363
:2004E0004F93BF92AF929F928F92DF93CF9380E791E09F938F9380E293E09F938F930E946B
:2005000000138DB79EB742960FB6F8949EBF0FBE8DBF80E001C081E0DF91CF911F910F91EE
:20052000FF90EF90DF90CF90BF90AF909F908F907F906F905F904F900895CF92DF92EF9237
:20054000FF920F931F930E94C80168EC70E080E090E00E941B090E94C801AC01662757FD18
:200560006095762F88ECC82ED12CE12CF12C09E110E020E030E083E991E00E943E021F91F7
:200580000F91FF90EF90DF90CF900895CF92DF92EF92FF920F931F93CF93DF9368EC70E092
:2005A00080E090E00E941B090E94C801EC014BED55E061E080E294E00E94920868EC70E0E9
:2005C00080E090E00E941B090E94C8018E010C531540222717FD2095322FAC01662757FDD6
:2005E0006095762FE4E6CE2ED12CE12CF12C80EA91E00E943E02882321F144E25AE061E059
:2006000080E294E00E94920868EC70E080E090E00E941B090E94C8018E010F501B4F222782
:2006200017FD2095322FAC01662757FD6095762F9AEFC92ED12CE12CF12C82EB91E00E9441
:200640003E02DF91CF911F910F91FF90EF90DF90CF900895CF92DF92EF92FF920F931F9389
:2006600061E080912E04681B60932E0420E033E648E050E088E294E00E94B90760912E047A
:2006800085E00E944D0A47E751E060E080E294E00E94920864EF71E080E090E00E941B0911
:2006A0000E94BB01AC01662757FD6095762FA6E9CA2ED12CE12CF12C02E61CE020E030E012
:2006C00084EC91E00E943E02882309F447C043E95DE060E080E294E00E94920861E087E144
:2006E0000E94140A60E087E10E94140A68EE73E080E090E00E941B090E94BB01AC016627FB
:2007000057FD6095762FF8ECCF2ED12CE12CF12C04E412E020E030E080ED91E00E943E0239
:200720008823E1F04FEF5FE060E080E294E00E94920864EF71E080E090E00E941B090E9492
:20074000BB01AC01662757FD6095762F06E410E020E030E08CED91E00E943E021F910F91AF
:20076000FF90EF90DF90CF900895CF92DF92EF92FF920F931F9347E751E060E080E294E053
:200780000E94920840E050E06AE774E480E294E00E94E60164E670E080E090E00E941B0995
:2007A00080E294E00E944C070E949411AB01BC0192E0C92ED12CE12CF12C08EE13E020E045
:2007C00030E088EE91E00E943E02882309F4AAC00E94D50120E030E04AE754E40E94531236
:2007E0000E949411AB01662757FD6095762F8EE1C82ED12CE12CF12C0EE110E020E030E010
:2008000086EF91E00E943E02882309F48BC040E050E563EC77E480E294E00E94E60164E675
:2008200070E080E090E00E941B0980E294E00E944C070E949411AB01BC0102E0C02ED12C8A
:20084000E12CF12C00EA16E821E030E085E092E00E943E02882309F465C00E94D50120E077
:2008600030E04AE754E40E9453120E949411AB01662757FD6095762F19E1C12ED12CE12C97
:20088000F12C02ED10E020E030E085E192E00E943E02882309F446C040E054E264E779E4E6
:2008A00080E294E00E94E60161E08BE00E944D0A60E08BE00E944D0A64E670E080E090E026
:2008C0000E941B0980E294E00E944C070E949411AB01BC01B2E0CB2ED12CE12CF12C00E441
:2008E00012E42FE030E086E292E00E943E028823C9F00E94D50120E030E04AE754E40E9430
:2009000053120E949411AB01662757FD6095762F07EE13E020E030E084E392E00E943E0251
:20092000811101C080E01F910F91FF90EF90DF90CF90089561E08DE00E94140A40E052EC6F
:2009400061E070E08AE394E00E94400B60ED77E080E090E00C941B09DF92EF92FF920F93DB
:200960001F93CF93DF93C0E0D1E0EE24E394F12C00E010E08A819B81892B91F180E294E0F7
:200980000E949A06EA81FB810995D82E688179818AE394E00E94B50B63E472E08AE394E0EA
:2009A0000E94B50BD11011C068E472E08AE394E00E94D20B60E273E08AE394E00E94D20B30
:2009C0000115110541F4870106C06DE472E08AE394E00E94D20B8FEFE81AF80A2496CACF90
:2009E000C801DF91CF911F910F91FF90EF90DF900895CF92DF92EF92FF920F931F93CF935A
:200A0000DF93EC01CC0FDD1F00E010E00C171D0704F5602F61708DE00E944D0A0E94EC0834
:200A20006B017C0124EFC20E21E0D21EE11CF11C0E94EC086C157D058E059F0538F48AE386
:200A400094E00E94BD0A019699F31AC00F5F1F4FDDCF0E94EC086B017C0188EBC80E8BE001
:200A6000D81EE11CF11C0E94EC086C157D058E059F0550F68AE394E00E94BD0A019699F3F3
:200A8000DF91CF911F910F91FF90EF90DF90CF900895CF93DF9368EE73E080E090E00E94CE
:200AA0001B0960E572E08AE394E00E94D20B0E94AC04EC01009751F468E672E08AE394E07F
:200AC0000E94D20B61E08DE00E944D0A6AE772E08AE394E00E94D20BCE010E94F9048AE312
:200AE00094E0DF91CF910C94BE0BCF93CFB7F89480911F04811127C0E7E2F1E08491E7E0B2
:200B0000F1E09491E82FF0E0EE0FFF1FEC5BFE4FA591B4918C91892321F461E081E10E94AB
:200B20004D0A61E081E10E94140A8CB580618CBD8CB580648CBD61E08FE00E94140A61E071
:200B400080E10E94140A80911F048F5F80931F04CFBFCF9108956091300464708FE10E9486
:200B60004D0A6091300468708EE10C944D0AEF92FF920F931F93CF93DF93EC018B017A018D
:200B80008981811103C08CB5806202C08CB58F7D8CBD8CB5837F9A81892B8CBD60E08881D7
:200BA0000E944D0A81E090E00E944309F801CF01801B910B8E159F0544F481918EBD0000A1
:200BC0000DB407FEFDCF8EB5F2CF81E090E00E94430961E08881DF91CF911F910F91FF90C7
:200BE000EF900C944D0A1F920F920FB60F9211242F933F934F935F936F937F938F939F93C2
:200C0000AF93BF93EF93FF9380918600909187002091220130912301821B930B90932101B4
:200C20008093200180918600909187009093230180932201809120019091210181159440E5
:200C400080F4809130048C30F8F4809130048C5F809330040E94AB0510921F0110921E01E7
:200C600013C080911E0190911F01009739F097FD0BC004974CF481E090E002C083E090E0D0
:200C800090931F0180931E01FF91EF91BF91AF919F918F917F916F915F914F913F912F917F
:200CA0000F900FBE0F901F9018951F920F920FB60F9211242F933F934F935F936F937F9364
:200CC0008F939F93AF93BF93EF93FF9380911E0190911F01019739F482E090E090931F01CD
:200CE00080931E010FC080913004843058F0809130048450809330040E94AB0510921F013E
:200D000010921E01FF91EF91BF91AF919F918F917F916F915F914F913F912F910F900FBE46
:200D20000F901F9018954BE151E067EB75E008960C94AF070F931F93CF93DF93EC0161E06A
:200D400089E00E94140A60E089E00E944D0A61E085E00E94140A60E085E00E944D0A61E083
:200D600086E00E94140A60E086E00E944D0A61E087E00E94140A61E087E00E944D0A61E064
:200D800088E00E94140A61E088E00E944D0A61E084E10E94140A60E084E10E944D0A61E044
:200DA0008FE10E94140A61E08EE10E94140A0E94AB050E9475058CB58C7F8CBD8DB581606D
:200DC0008DBD61E08BE00E94140A61E08BE00E944D0A8E01085F1F4FC8010E94FA0768E29E
:200DE00070E0C8010E941B0860E08BE00E944D0A48E151E067EB75E0CE010E94470841E08F
:200E000060E0CE010E945E0840E050E060E0CE010E946F0840E060E0CE010E94810840E0C9
:200E200050E060E0CE010E94920841E061E0CE010E945E0841E050E061E0CE010E946F0884
:200E400040E061E0CE010E94810840E058E061E0CE010E94920883E00E94A3091E861F8699
:200E6000E0E8F0E080818C7F8083E1E8F0E08081827E8083808182608083EFE6F0E08081A2
:200E800081628083E0ECF0E0808181608083DF91CF911F910F910895CF92DF92EF92FF924A
:200EA000CF93F89480911E0190911F01019789F080911E0190911F01029759F060E070E0DF
:200EC00080EC9FE77894CF91FF90EF90DF90CF9008956091200170912101C091300480E021
:200EE00090E00E94C5119B01AC0160E074E284EF99E40E942C116B017C0161E070E002C020
:200F0000660F771FCA95E2F7882777FD8095982F0E94C7119B01AC01C701B6010E94531246
:200F2000D1CF80E294E00C949306CF93DF9300D0CDB7DEB779836A83DC01ED91FC911197CC
:200F400042E050E0BE016F5F7F4F12968D919C91139709950F900F90DF91CF910895FC0101
:200F6000718360835383428380E092E2958384830895EF92FF921F93CF93DF9300D000D037
:200F8000CDB7DEB77C01162F662319F0E0E0F0E802C0E0E0F0E4B9017F736E2B7F2BC7013F
:200FA00029833A834B835C830E94950729813A814B815C81112319F080E090E802C080E098
:200FC00090E4BA01A9012EE076956795579547952A95D1F7BA017F73682B792BC7010F9089
:200FE0000F900F900F90DF91CF911F91FF90EF900C949507CF93DF93EC016C817D810E94FC
:20100000950720E030E0A90160E0CE010E94B90720E030E0A90161E0CE010E94B90760E09D
:2010200070ECCE010E94950760E070EECE01DF91CF910C949507FC0124813581257C622B48
:20104000732B758364830C949507CF93DF9300D0CDB7DEB7FC01E60FF11DE60FF11D34964D
:201060002081318139832A83DC01ED91FC91119742E050E0BE016F5F7F4F12968D919C9184
:20108000139709950F900F90DF91CF910895CF93DF93EC01798368835B834A831D821C82CD
:2010A00080E090E89F838E8360E0CE010E94250861E0CE01DF91CF910C942508E62FF0E0B5
:2010C000EE0FFF1FE80FF91F24813581442311F0306401C03F7B358324830C942508E62FD3
:2010E000F0E0EE0FFF1FE80FF91F248135814130510511F43F7D01C03062358324830C94C1
:201100002508E62FF0E0EE0FFF1FE80FF91F24813581442311F03F7E01C030613583248362
:201120000C942508FC01E60FF11DE60FF11D248135812227307F5F70242B352B35832483AF
:201140000C9425081F920F920FB60F9211242F933F938F939F93AF93BF93809132049091F1
:201160003304A0913404B09135043091310423E0230F2D3720F40196A11DB11D05C026E8BC
:20118000230F0296A11DB11D209331048093320490933304A0933404B0933504809136043C
:2011A00090913704A0913804B09139040196A11DB11D8093360490933704A0933804B09368
:2011C0003904BF91AF919F918F913F912F910F900FBE0F901F9018952FB7F8946091320462
:2011E0007091330480913404909135042FBF08953FB7F8948091360490913704A0913804F3
:20120000B091390426B5A89B05C02F3F19F00196A11DB11D3FBF6627782F892F9A2F620FAF
:20122000711D811D911D42E0660F771F881F991F4A95D1F70895CF92DF92EF92FF92CF93BE
:20124000DF936B017C010E94F808EB01C114D104E104F10489F00E94E80F0E94F8086C1BE6
:201260007D0B683E734090F381E0C81AD108E108F108C851DC4FEACFDF91CF91FF90EF9031
:20128000DF90CF900895019739F0880F991F880F991F02970197F1F70895789484B58260A7
:2012A00084BD84B5816084BD85B5826085BD85B5816085BDEEE6F0E0808181608083E1E885
:2012C000F0E01082808182608083808181608083E0E8F0E0808181608083E1E9F0E08081C9
:2012E00082608083808181608083E0E9F0E0808181608083E1ECF0E0808184608083808120
:2013000082608083808181608083E3ECF0E0808181608083E0ECF0E0808182608083E2EC2F
:20132000F0E0808181608083EAE7F0E08081846080838081826080838081816080838081A3
:20134000806880830895809324010895823108F08251E82FF0E0E653FF4FE49180917B0043
:20136000E3FB222720F930E095E0220F331F9A95E1F78F7D822B80937B00E770809124014A
:2013800020E4829FC0011124E82BE0937C0080917A00806480937A0080917A0086FDFCCF5B
:2013A000809178002091790090E0922B089590E0FC013197EF30F105B0F5EA5AFF4F0C948F
:2013C000D812809180008F7703C0809180008F7D80938000089580918000877FF9CF84B564
:2013E0008F7702C084B58F7D84BD0895809190008F7707C0809190008F7D03C08091900083
:20140000877F8093900008958091C0008F7703C08091C0008F7D8093C00008958091C200CC
:20142000877F8093C2000895CF93DF9390E0FC01EA50FF4F2491FC01EA5EFE4F8491882364
:2014400049F190E0880F991FFC01EC5BFE4FA591B4918A5C9E4FFC01C591D4919FB7611134
:2014600008C0F8948C91209582238C93888182230AC0623051F4F8948C91322F30958323BE
:201480008C938881822B888304C0F8948C91822B8C939FBFDF91CF9108950F931F93CF93B2
:2014A000DF931F92CDB7DEB7282F30E0F901EA52FF4F8491F901EA50FF4F1491F901EA5E87
:2014C000FE4F04910023C9F0882321F069830E94D7096981E02FF0E0EE0FFF1FEA5CFE4FAD
:2014E000A591B4919FB7F8948C91611103C01095812301C0812B8C939FBF0F90DF91CF919B
:201500001F910F910895CF93DF931F92CDB7DEB76983DC01ED91FC910280F381E02D41E048
:2015200050E0BE016F5F7F4F09950F90DF91CF910895CF93DF93EC018C859D8597FF05C027
:2015400082E00E94200D9D878C878C859D85DF91CF91089583E00C94740FFC0184859585DD
:2015600097FD06C082E00E94C90C90E00196089582E00E94C90C90E00895FC01848595858E
:2015800097FD05C02FEF3FEF35872487089582E00C94200DCF93DF93EC0180912C018823C9
:2015A00031F083E00E94510D1816190634F081E090E09B838A8380E090E0DF91CF910895FD
:2015C000FC0120812E5F208342E450E062E571E080E80C94EB0DFC0181819081913A59F427
:2015E000813209F03CC047E050E065E271E080E00E94EB0D43C0913291F5803239F467E0E8
:2016000070E085E291E00E941C0E06C0823209F035C0828180932C018091250190912601AC
:20162000A0912701B0912801803B9440A105B105C1F480912C0180FD14C087E797E79093A9
:201640000108809300082BE088E190E00FB6F894A895809360000FBE209360000FC080E072
:20166000089588E10FB6F89480936000109260000FBEA895109201081092000881E0089541
:201680002FEF3FEFFC0135872487089510923D0410923C0488EE93E0A0E0B0E080933E04EA
:2016A00090933F04A0934004B093410486E093E090933B0480933A048FEF9FEF90934704BF
:2016C00080934604089508950E944D090E94630B8AE894E00E94CC0F0E949A04C0E0D0E078
:2016E0000E9449052097E1F30E940000F9CFCF92DF92EF92FF920F931F93CF93DF936C018C
:201700007A01EB01E60EF71E00E010E0CE15DF0561F06991D601ED91FC910190F081E02D86
:20172000C6010995080F191FF1CFC801DF91CF911F910F91FF90EF90DF90CF90089561155D
:20174000710581F0DB010D900020E9F7AD0141505109461B570BDC01ED91FC910280F381EF
:20176000E02D099480E090E008950C949F0BDC01ED91FC910190F081E02D09940F931F9320
:20178000CF93DF93EC016DE00E94B70B8C016AE0CE010E94B70B800F911FDF91CF911F910E
:2017A0000F9108950F931F93CF93DF93EC010E949F0B8C01CE010E94BE0B800F911FDF9115
:2017C000CF911F910F9108958F929F92AF92BF92CF92DF92EF92FF920F931F93CF93DF93CC
:2017E000CDB7DEB7A1970FB6F894DEBF0FBECDBF7C01C42EE52FCB01D22E19A221E02D1504
:2018000010F02AE0D22E8E010F5D1F4F8D2C912CA12CB12C6C2D7E2FA50194010E94B6124A
:201820008C2DD29E80191124015011098A3014F4805D01C0895CF801808321153105410553
:20184000510521F0C22EE32FCA01E4CFB801C7010E949F0BA1960FB6F894DEBF0FBECDBF56
:20186000DF91CF911F910F91FF90EF90DF90CF90BF90AF909F908F9008952115310541F452
:20188000DC01ED91FC910190F081E02D642F09940C94E40B9A01462F50E060E070E00C9422
:2018A0003D0C40918E0450918F0420918C0430918D0442175307B4F49091E8009570E1F338
:2018C0009091E80092FD19C08093F10080918E0490918F0401968F739927892B19F48EEFA5
:2018E0008093E80080918E0490918F04019690938F0480938E0481E0089580E00895CF9248
:20190000DF92FF920F931F93CF93DF931F92CDB7DEB7082F162F862F880F8E5F99830E9460
:20192000510C83E00E94510CF02EC02E9981D92E8C2D8F19811778F4F60184910E94510C4B
:20194000082F80E00E94510C8023FFEFCF1ADF0A8111EECF01C081E00F90DF91CF911F91FE
:201960000F91FF90DF90CF900895615030F02091F100FC0120830196F8CF84E6809391044A
:2019800008952FB7FC012083F89467706093E9000895CF93DF931F92CDB7DEB7682FCE0144
:2019A00001960E94C10C8091F20099819FBF0F90DF91CF910895FF920F931F93CF93DF93E1
:2019C00000D0CDB7DEB7F62E8A0190919004992311F057FF03C08FEF9FEF2AC0682FCE0188
:2019E00001967A830E94C10C8091F20090E0A8017A81801791070CF4AC01EF2DF72FF40EAD
:201A000084E6FE1631F0809391049091F1009193F8CF4115510521F08091F200882321F006
:201A200089818FBFCA0104C08BE68093E800F8CF0F900F90DF91CF911F910F91FF90089502
:201A4000CF93DF931F92CDB7DEB741E050E0BE016F5F7F4F0E94DB0C019719F4898190E094
:201A600002C08FEF9FEF0F90DF91CF910895CF93DF931F92CDB7DEB7682FCE0101960E944F
:201A8000C10C9091E800892F807295FF04C09091F20080E4891B99819FBF0F90DF91CF916C
:201AA00008956F927F928F929F92AF92BF92CF92DF92EF92FF920F931F93CF93DF931F92D6
:201AC000CDB7DEB7782E7B01C42EB52E80919004882369F0042F152F8AEFD82E872D8072B1
:201AE000982E9AE3A92E872D8074882E11C08FEF9FEF56C0872D0E94370D682E81110CC0ED
:201B0000DA94A9F361E070E080E090E00E941B090115110579F73BC0282F30E00217130763
:201B20000CF4602E672DCE0101960E94C10C8091E80085FF29C0262D30E0021B130B9920F1
:201B400039F06A948FEF6816B1F01092F100F9CFF701862D77FE07C0815058F0949190931E
:201B6000F1003196F9CF815020F091919093F100FACFE20EF31E8091E80085FF0EC00115A3
:201B8000110511F4811009C089818FBFC1CF84E6809392048C2D9B2D03C0A092E800F4CFB4
:201BA0000F90DF91CF911F910F91FF90EF90DF90CF90BF90AF909F908F907F906F90089503
:201BC0001092E90010928F0410928E0490938D0480938C040895CF92DF92FF920F931F9366
:201BE000CF93DF9300D0CDB7DEB7F82E8A016B0101151105B1F0F601F7FE02C0849101C0BA
:201C0000808149835A830E94510C01501109FFEFCF1ADF0A49815A818111EACF8FEF9FEFF4
:201C200001C0CA010F900F90DF91CF911F910F91FF90DF90CF9008951F93CF93DF931F9289
:201C4000CDB7DEB7162F2091E80022FFFCCF612F79830E94B50C8BEF8093E800812F798193
:201C6000972F0F90DF91CF911F910895CF93DF931F92CDB7DEB71982CE0101960E94E00AB7
:201C8000CE0101960E940710898190E00F90DF91CF9108951F920F920FB60F921124EF9231
:201CA000FF920F931F932F933F934F935F936F937F938F939F93AF93BF93EF93FF93CF9365
:201CC000DF93CDB7DEB76297DEBFCDBF1092E9008091E80083FFEBC068E0CE010A960E944D
:201CE000B50C82EF8093E8009A8597FF05C08091E80080FFFCCF03C08EEF8093E800892F07
:201D0000807609F0B9C08B85811105C01092F1001092F100C5C0282F2D7F213009F4C0C078
:201D2000853049F48091E80080FFFCCF8C8580688093E300B5C0863009F076C02D85E88803
:201D4000F988223071F580E090E02A8B0E94E00D0E94360E99E08E010F5F1F4FF801392F0B
:201D600011923A95E9F799832A892A8391E09E8390E898879AEF998720918E0430918F042C
:201D8000275F3F4F3C832B838D83C7010E94E00D49E050E0B80180E00E94EB0D0E94360E69
:201DA0007FC0C7012A8B0E94E00D2A89223241F482E290E00E941210892B09F071C074C0F2
:201DC000213069F488899989089711F420938B0480918B04811118C06BEA71E01AC023305F
:201DE00009F062C08C85882391F0823021F467E08BEC91E006C0813009F056C06DE08DEB4A
:201E000091E00E947F0C4AC069E971E002C063ED71E06115710509F447C0FB01449150E023
:201E200080E80E94EB0D3CC0873009F43DC0883021F481E08093F10033C0893089F5937094
:201E400099F5E5E9F1E081E021E096E38093E9002093EB0034913093EC009093ED008F5F6E
:201E60003196853099F78EE78093EA001092EA008C858093900414C0888999890E94E00D0A
:201E80008E85811105C0CE010A960E94EB0A06C0823051F4CE010A960E943A10882321F0FE
:201EA0008EEF8093E80003C081E28093EB0062960FB6F894DEBF0FBECDBFDF91CF91FF91E7
:201EC000EF91BF91AF919F918F917F916F915F914F913F912F911F910F91FF90EF900F9035
:201EE0000FBE0F901F9018958093E9008091F200882319F08AE38093E80008951F920F9210
:201F00000FB60F9211242F933F934F935F936F937F938F939F93AF93BF93EF93FF9380919D
:201F2000E1001092E10083FF0FC01092E90091E09093EB001092EC0092E39093ED0010922D
:201F4000900498E09093F00082FF15C083E00E94740F80919204882329F0809192048150A1
:201F60008093920480919104882329F080919104815080939104FF91EF91BF91AF919F915F
:201F80008F917F916F915F914F913F912F910F900FBE0F901F9018951092900481E08093A0
:201FA000D70080EA8093D80082E189BD09B400FEFDCF61E070E080E090E00E941B0980E935
:201FC0008093D8008CE08093E2001092E00008950895FF920F931F93CF93DF93EC01F62E2F
:201FE000E881F9810480F581E02D09958C01E881F9810680F781E02D6F2DCE010995C8010C
:202000009927DF91CF911F910F91FF900895FC0120812F5F208349E150E067E572E080E885
:202020000C94EB0D45E650E060E772E080E80C94EB0DEF92FF920F931F93CF93DF931F9229
:20204000CDB7DEB789838B017A0141E050E0BE016F5F7F4F84E00E94510DA701B80184E47B
:202060000E94510D0F90DF91CF911F910F91FF90EF900895FC0191818081813A31F481E0A5
:20208000913091F0933089F411C0813271F49B3021F4828180932E0105C09A3031F48281F9
:2020A00080932D0181E00895089580E0089548E050E082E00C941910CF93DF93DC01683873
:2020C00018F0E8E7E60F25C0E62FF0E067FF11C0E058F10981E090E001C0880FEA95EAF778
:2020E00014969C911497982B14969C931497E0E010C0E952FE4FE491EE2309F440C0E7FF96
:2021000008C014968C911497826014968C931497EF7716968C9116978E1741F117968C91B2
:2021200017978E1719F118968C9118978E17F1F019968C9119978E17C9F01A968C911A97EA
:202140008E17A1F01B968C911B978E1779F080E090E0ED01C80FD91F2E81211102C0EE831A
:2021600005C0019686309105A1F709C0BD016C5F7F4FCD010E94571081E090E008C081E02E
:2021800090E013969C938E93129780E090E0DF91CF910895683818F0E8E7E60F25C0E62F8A
:2021A000F0E067FF12C0E058F10921E030E001C0220FEA95EAF72095DC0114963C911497CE
:2021C000322314963C93E0E00FC0E952FE4FE491EE2329F1E7FF08C0DC0114962C911497DD
:2021E0002D7F14962C93EF7720E030E0EE2351F0DC01A20FB31F16964C9116974E1302C049
:2022000016961C922F5F3F4F2630310579F7BC016C5F7F4F0E94571081E090E0089580E01F
:2022200090E00895FC011682178210861186128613861482BC016C5F7F4F0C945710109270
:202240009F04109296041092950486E193E0909394048093930408950CD0EBC0E3D040F01E
:20226000DAD030F021F45F3F19F0CCC0511115C1CFC0F0D098F39923C9F35523B1F3951BF6
:20228000550BBB27AA2762177307840738F09F5F5F4F220F331F441FAA1FA9F333D00E2E4F
:2022A0003AF0E0E830D091505040E695001CCAF729D0FE2F27D0660F771F881FBB1F26177D
:2022C00037074807AB07B0E809F0BB0B802DBF01FF2793585F4F2AF09E3F510568F092C045
:2022E000DCC05F3FECF3983EDCF3869577956795B795F7959F5FC9F7880F911D96958795DB
:2023000097F90895E1E0660F771F881FBB1F621773078407BA0720F0621B730B840BBA0BA5
:20232000EE1F88F7E095089504D06894B111B5C0089598D088F09F5790F0B92F9927B75155
:20234000A0F0D1F0660F771F881F991F1AF0BA95C9F712C0B13081F09FD0B1E008959CC08C
:20236000672F782F8827B85F39F0B93FCCF3869577956795B395D9F73EF4909580957095CE
:2023800061957F4F8F4F9F4F0895E89409C097FB3EF490958095709561957F4F8F4F9F4F38
:2023A0009923A9F0F92F96E9BB279395F695879577956795B795F111F8CFFAF4BB0F11F496
:2023C00060FF1BC06F5F7F4F8F4F9F4F16C0882311F096E911C0772321F09EE8872F762FFD
:2023E00005C0662371F096E8862F70E060E02AF09A95660F771F881FDAF7880F96958795C1
:2024000097F9089597F99F6780E870E060E008959FEF80EC089500240A94161617061806A4
:202420000906089500240A9412161306140605060895092E0394000C11F4882352F0BB0F95
:2024400040F4BF2B11F460FF04C06F5F7F4F8F4F9F4F089557FD9058440F551F59F05F3F47
:2024600071F04795880F97FB991F61F09F3F79F087950895121613061406551FF2CF469582
:20248000F1DF08C0161617061806991FF1CF86957105610508940895E894BB27662777270C
:2024A000CB0197F908950BD0C4CFB5DF28F0BADF18F0952309F0A6CFABCF1124EECFCADF2D
:2024C000A0F3959FD1F3950F50E0551F629FF001729FBB27F00DB11D639FAA27F00DB11DDB
:2024E000AA1F649F6627B00DA11D661F829F2227B00DA11D621F739FB00DA11D621F839FED
:20250000A00D611D221F749F3327A00D611D231F849F600D211D822F762F6A2F11249F578D
:2025200050408AF0E1F088234AF0EE0FFF1FBB1F661F771F881F91505040A9F79E3F5105E0
:2025400070F060CFAACF5F3FECF3983EDCF3869577956795B795F795E7959F5FC1F7FE2BFB
:20256000880F911D9695879597F90895A1E21A2EAA1BBB1BFD010DC0AA1FBB1FEE1FFF1FA3
:20258000A217B307E407F50720F0A21BB30BE40BF50B661F771F881F991F1A9469F76095EA
:2025A0007095809590959B01AC01BD01CF010895EE0FFF1F0590F491E02D0994B7FF0C9433
:2025C000E6120E94E612821B930B08950E94F112A59F900DB49F900DA49F800D911D112468
:2025E0000895A29FB001B39FC001A39F700D811D1124911DB29F700D811D1124911D08950D
:20260000AEE0B0E0E6E0F3E10C94A8150D891E8986E08C831A8309838FEF9FE79E838D8395
:20262000AE01475E5F4F6F89788DCE0101960E942213EF81F885E00FF11F10822E96E4E058
:202640000C94C415ACE0B0E0E8E2F3E10C949A157C016B018A01FC0117821682838181FFD2
:20266000BDC1CE0101964C01F7019381F60193FD859193FF81916F01882309F4ABC18532A1
:2026800039F493FD859193FF81916F01853229F4B70190E00E940A15E7CF512C312C20E006
:2026A0002032A0F48B3269F030F4803259F0833269F420612CC08D3239F0803339F4216037
:2026C00026C02260246023C0286021C027FD27C030ED380F3A3078F426FF06C0FAE05F9EBB
:2026E000300D1124532E13C08AE0389E300D1124332E20620CC08E3221F426FD6BC120640B
:2027000006C08C3611F4206802C0883641F4F60193FD859193FF81916F018111C1CF982F55
:202720009F7D9554933028F40C5F1F4FFFE3F9830DC0833631F0833771F0833509F05BC0F0
:2027400022C0F801808189830E5F1F4F44244394512C540115C03801F2E06F0E711CF801C2
:20276000A080B18026FF03C0652D70E002C06FEF7FEFC5012C870E94FF142C0183012C8520
:202780002F77222E17C03801F2E06F0E711CF801A080B18026FF03C0652D70E002C06FEF23
:2027A0007FEFC5012C870E94F4142C012C852068222E830123FC1BC0832D90E04816590677
:2027C000B0F4B70180E290E00E940A153A94F4CFF50127FC859127FE81915F01B70190E08B
:2027E0000E940A1531103A94F1E04F1A51084114510471F7E5C0843611F0893639F5F8011E
:2028000027FF07C060817181828193810C5F1F4F08C060817181882777FD8095982F0E5F01
:202820001F4F2F76B22E97FF09C090958095709561957F4F8F4F9F4F2068B22E2AE030E0F5
:20284000A4010E943C15A82EA81844C0853729F42F7EB22E2AE030E025C0F22FF97FBF2E5B
:202860008F36C1F018F4883579F0B4C0803719F0883721F0AFC02F2F2061B22EB4FE0DC0FF
:202880008B2D8460B82E09C024FF0AC09F2F9660B92E06C028E030E005C020E130E002C0DF
:2028A00020E132E0F801B7FE07C060817181828193810C5F1F4F06C06081718180E090E064
:2028C0000E5F1F4FA4010E943C15A82EA818FB2DFF77BF2EB6FE0BC02B2D2E7FA51450F4E3
:2028E000B4FE0AC0B2FC08C02B2D2E7E05C07A2C2B2D03C07A2C01C0752C24FF0DC0FE0165
:20290000EA0DF11D8081803311F4297E09C022FF06C07394739404C0822F867809F0739421
:2029200023FD13C020FF06C05A2C731418F4530C5718732C731468F4B70180E290E02C8719
:202940000E940A1573942C85F5CF731410F4371801C0312C24FF12C0B70180E390E02C870F
:202960000E940A152C8522FF17C021FF03C088E590E002C088E790E0B7010CC0822F867859
:2029800059F021FD02C080E201C08BE227FD8DE2B70190E00E940A15A51438F4B70180E302
:2029A00090E00E940A155A94F7CFAA94F401EA0DF11D8081B70190E00E940A15A110F5CF9B
:2029C000332009F451CEB70180E290E00E940A153A94F6CFF7018681978102C08FEF9FEFC5
:2029E0002C96E2E10C94B615FC010590615070400110D8F7809590958E0F9F1F0895FC01E5
:202A00006150704001900110D8F7809590958E0F9F1F08950F931F93CF93DF93182F092F0B
:202A2000EB018B8181FD03C08FEF9FEF20C082FF10C04E815F812C813D81421753077CF4E3
:202A4000E881F9819F012F5F3F4F39832883108306C0E885F985812F0995892B29F72E815B
:202A60003F812F5F3F4F3F832E83812F902FDF91CF911F910F910895FA01AA27283051F175
:202A8000203181F1E8946F936E7F6E5F7F4F8F4F9F4FAF4FB1E03ED0B4E03CD0670F781F57
:202AA000891F9A1FA11D680F791F8A1F911DA11D6A0F711D811D911DA11D20D009F46894D9
:202AC0003F912AE0269F11243019305D3193DEF6CF010895462F4770405D4193B3E00FD038
:202AE000C9F7F6CF462F4F70405D4A3318F0495D31FD4052419302D0A9F7EACFB4E0A695C7
:202B00009795879577956795BA95C9F700976105710508959B01AC010A2E06945795479563
:202B200037952795BA95C9F7620F731F841F951FA01D08952F923F924F925F926F927F92D4
:202B40008F929F92AF92BF92CF92DF92EF92FF920F931F93CF93DF93CDB7DEB7CA1BDB0BA1
:202B60000FB6F894DEBF0FBECDBF09942A88398848885F846E847D848C849B84AA84B984BE
:202B8000C884DF80EE80FD800C811B81AA81B981CE0FD11D0FB6F894DEBF0FBECDBFED0111
:202BA0000895F894FFCF9B029801A7029D02B802C602CF022A03E902B50300000000070175
:202BC000000801080300FFFFFFFF0100E1000000000000010123207573625F6964203D20CB
:202BE0000023202573203D20256C640023202573203D2025660025733A202566206973200C
:202C00006E6F74206265747765656E20256620616E642025660025733A20256C64206973CD
:202C2000206E6F74206265747765656E20256C6420616E6420256C6400696E7075745F6F9E
:202C40006666736574006F75747075745F6F66667365745F6E6567006F75747075745F6FAD
:202C600066667365745F706F7300696E7075745F616D705F3600696E7075745F616D705FFD
:202C80003100696E7075745F616D705F3000696E7075745F667265715F316B00696E7075B3
:202CA000745F70686173655F316B00696E7075745F667265715F3130306B00696E7075746D
:202CC0005F70686173655F3130306B00696E7075745F667265715F316D00696E7075745F60
:202CE00070686173655F316D002E2E2E20004641494C004F4B00457865637574696E67209A
:202D0000746573742073756974652E2E2E00416C6C207465737473207061737365642E00E5
:202D2000507265737320656E74657220746F20726572756E20746573742073756974652EA1
:202D40000052656164205553422049440054657374207A65726F206F666673657400546560
:202D60007374206F66667365742061646A7573746D656E74005465737420616D706C69741F
:202D80007564652061646A7573746D656E740054657374206672657175656E637920616E15
:202DA000642070686173650000000000830ACA0AAD0ABD0A990AAA0A00000000E90F770BCE
:062DC0005C10CA101211A4
:207000005FC0000078C0000076C0000074C0000072C0000070C000006EC000006CC00000F3
:207020006AC0000068C00000C1C4000064C0000062C0000060C000005EC000005CC00000D9
:207040005AC00000E3C0000056C0000054C0000052C0000050C000004EC000004CC000000D
:207060004AC0000048C0000046C0000044C0000042C0000040C000003EC000003CC00000F8
:207080003AC0000038C0000036C0000034C0000032C0000030C000002EC000002CC0000058
:2070A0002AC0000028C0000026C00000453E5E3E073F5E3E073F983EBA3E073FDA3EEC3E7B
:2070C00011241FBECFEFDAE0DEBFCDBF11E0A0E0B1E0E8E9FEE702C005900D92AE3AB107AF
:2070E000D9F711E0AEEAB1E001C01D92A43CB107E1F759D3CFC684CF84E08093E900809141
:20710000E80085FD0DC08091E8008B778093E8008091E80082FDF3CF8EB38111F9CF02C0AB
:207120008091F100089593E09093E9009091E80095FF0AC08093F1005D9884E690E09093D4
:20714000B3018093B20108959091E8009E779093E8009091E80090FDEDCF9EB39111F9CFE2
:207160000895F89410926F0010928100109285001092840081E085BF15BE47985D9A289A55
:207180000C94000008952091B8013091B9012F5F3F4F3093B9012093B801832F37FF02C01E
:2071A0008EEF831B880F821710F447980895479A089584B7877F84BF88E10FB6F894809335
:2071C0006000109260000FBE90E880E00FB6F89490936100809361000FBE81E085BF82E08B
:2071E00085BF3F9A209A559AE1E6F0E09083108247985D9A289A109289009AEF9093880096
:2072000080936F0083E080938100B8C31F920F920FB60F9211242F938F939F93EF93FF9363
:2072200010928500109284008091B2019091B301009741F001979093B3018093B201892BB7
:2072400009F45D9A8091B0019091B101009741F001979093B1018093B001892B09F4289A39
:20726000E0E0F0E085919491019649F08091AE019091AF0101969093AF018093AE01FF9126
:20728000EF919F918F912F910F900FBE0F901F90189542E061EC82E006D342E161E883E07E
:2072A00002D342E160E884E0FEC28091BC01982F9F77913239F59091BD01903291F09132E9
:2072C00009F5813AF9F48091E800877F8093E80067E070E083E091E01AD48091E8008B77BA
:2072E0000FC0813279F48091E800877F8093E80067E070E083E091E067D48091E8008E7701
:207300008093E80008956F927F928F929F92AF92BF92CF92DF92EF92FF920F931F93CF9345
:20732000DF9384E08093E9008091E80082FF2CC2289884E690E09093B1018093B001DCDE26
:20734000C82F853481F48CE49DE19093AF018093AE0107B600FCFDCFF999FECF81E180932C
:207360005700E89503C0843521F4C6DE8DE0DBDEE2C18C34D9F38035C9F3843721F484E406
:20738000D2DE80E0F4CF813611F489E5F0CF813491F4B2DEC82FB0DE90E0880F991F2C2FC8
:2073A00030E0322F2227330F822B932BAA2797FDA095BA2F94C1803711F483E5D8CF83350B
:2073C00049F4C4EAD1E01C2F195F8991ACDE1C13FCCFB1C1863521F481E3A5DE80E3C7CF8E
:2073E000833731F487E89FDE85E99DDE8EE1BFCF8536B9F4E0E0F0E083E095E080935700A2
:20740000E89507B600FCFDCF90935700E89507B600FCFDCFE058FF4FE11520E7F20771F70A
:20742000A5CF823719F4E1E0F0E00EC0863419F4E0E0F0E009C08E3419F4E3E0F0E004C06D
:20744000813539F4E2E0F0E089E08093570084918ECF823631F489E566DE80E064DE80E8D9
:2074600086CF823419F0873609F0D1C01092AF011092AE0141DE082F3FDED82F3DDE182F32
:207480008BEB810F823010F08FE371CF2D2F30E0302B10926F00C73609F043C081E180933C
:2074A0005700E895E90100E0BB24B394209709F4AAC0C090B401D090B501E090B601F09028
:2074C000B7011634B9F4E02FF0E0EC29FD2984912ADE002369F082E0C80ED11CE11CF11C1B
:2074E000C092B401D092B501E092B601F092B7010B2515C0D701C601B695A7959795879597
:20750000B3D411DEE2E0CE0ED11CE11CF11CC092B401D092B501E092B601F092B701219726
:20752000C5CF8090B4019090B501A090B601B090B701163441F483E0F40180935700E8957F
:2075400007B600FCFDCFE901712C00E066246394209709F44CC0163431F5002301F1C09029
:20756000B401D090B501E090B601F090B701C4DD272D30E0382BF601090160925700E895B2
:207580001124F2E0CF0ED11CE11CF11CC092B401D092B501E092B601F092B70102C0ACDD43
:2075A000782E062522C0A8DD682F8091B4019091B501A091B601B091B701B695A7959795CB
:2075C00087955AD48091B4019091B501A091B601B091B7010296A11DB11D8093B4019093D4
:2075E000B501A093B601B093B7012197B1CF163441F485E0F40180935700E89507B600FC3F
:20760000FDCF8DE090DD82E080936F0094C0833471F4C091B401D091B5016EDD90E021E097
:20762000FE010C0120935700E89511249FCE833601F5C090B401D090B501E090B601F090A4
:20764000B7015ADDF601E16090E021E00C0120935700E8951124F2E0CF0ED11CE11CF11C23
:20766000C092B401D092B501E092B601F092B7017DCE8D3661F4E091B401F091B50185E063
:2076800080935700E89507B600FCFDCF6FCE823551F4E091B401F091B501C591D4918D2F71
:2076A00042DD8C2F64CE843419F526DD682F8091B4019091B501A091B601B091B701B69595
:2076C000A79597958795D8D38091B4019091B501A091B601B091B7010296A11DB11D8093C6
:2076E000B4019093B501A093B601B093B7013ECE8436F1F4C090B401D090B501E090B6012A
:20770000F090B701D701C601B695A79597958795ABD309DD22E0C20ED11CE11CF11CC09244
:20772000B401D092B501E092B601F092B70103C08B3109F0A9CE83E08093E9009091E800C2
:207740008091E8008E778093E80095FD11C08091E80080FD04C08EB38111F9CF15C0809112
:20776000E8008E778093E80003C08EB3882361F08091E80080FFF9CF84E08093E900809170
:20778000E8008B778093E800DF91CF911F910F91FF90EF90DF90CF90BF90AF909F908F902C
:2077A0007F906F9008952091000830910108109201081092000884B714BE98E10FB6F8946F
:2077C00090936000109260000FBE81FD1AC080FF09C0E0E0F0E0459154914F3F5F4F11F02F
:2077E000C0DC0FC083FF0DC080910001909101012817390731F0E0E0F0E085919491019698
:2078000079F7D7DC78941092AF011092AE0180910201882369F077DD10D38091AE01909166
:20782000AF0181349F4110F010920201ACDCEFCF8091E00081608093E00093DC80E090E014
:207840000895292F30E02230310559F02330310569F021303105F9F482E190E022E931E00D
:207860001EC08EE390E024E531E019C0882349F0813061F0823079F48CE190E02AE031E059
:207880000EC084E090E020E531E009C086E290E028E231E004C080E090E020E030E0FA01D5
:2078A0003183208308958093E900EBEEF0E0808181608083EDEEF0E010826093EC0040836B
:2078C0008091EE00881F8827881F08958091BC0187FF0FC08091E80082FD04C08EB38111DD
:2078E000F9CF10C08091E8008B770AC08EB3882349F08091E80080FFF9CF8091E8008E77C8
:207900008093E80008950F931F93CF93DF9341D048D0C8EDD0E088818F778883888180680E
:20792000888388818F7D888319BC1EBA1092BA0100EE10E0F80180818B7F80838881816043
:20794000888342E060E080E0AEDFE1EEF0E080818E7F8083E2EEF0E0808181608083808197
:2079600088608083F80180818E7F8083888180618883DF91CF911F910F910895E7EDF0E0BC
:207980008081816080838AE482BF81E08093BB01BACFE8EDF0E080818E7F80831092E20060
:2079A00008951092DA001092E10008951F920F920FB60F9211242F933F934F935F936F9337
:2079C0007F938F939F93AF93BF93EF93FF938091DA0080FF1BC08091D80080FF17C0809104
:2079E000DA008E7F8093DA008091D90080FF0BC080E189BD82E189BD09B400FEFDCF81E047
:207A00008EBB1AD203C019BC1EBA16D28091E10080FF17C08091E20080FF13C08091E20059
:207A20008E7F8093E2008091E20080618093E2008091D80080628093D80019BC85E08EBB42
:207A4000FBD18091E10084FF2CC08091E20084FF28C080E189BD82E189BD09B400FEFDCFC4
:207A60008091D8008F7D8093D8008091E1008F7E8093E1008091E2008F7E8093E20080912D
:207A8000E20081608093E2008091BA01811106C08091E30087FD02C081E001C084E08EBB01
:207AA000CBD18091E10083FF21C08091E20083FF1DC08091E100877F8093E10082E08EBBEC
:207AC0001092BA018091E1008E7F8093E1008091E2008E7F8093E2008091E200806180937A
:207AE000E20042E060E080E0DEDEA6D1FF91EF91BF91AF919F918F917F916F915F914F91DF
:207B00003F912F910F900FBE0F901F9018952091C2013091C3012617370748F061157105D6
:207B200039F42091E8002E772093E80001C0B90140E061157105A1F12EB3222309F440C003
:207B4000253009F43FC02091E80023FD37C02091E80022FD2DC02091E80020FFEACF40913D
:207B6000F3002091F20030E0342BFC01CF016115710559F02830310540F481918093F10026
:207B8000615071092F5F3F4FF1CF41E02830310509F040E02091E8002E772093E800C9CFA5
:207BA0004111CACF05C08EB3882351F0853051F08091E80082FFF7CF80E0089581E00895B7
:207BC00082E0089583E008956115710529F42091E8002B772093E800FC016115710531F1BC
:207BE0008EB3882359F1853059F18091E80083FD23C08091E80082FFF0CF2091F300809106
:207C0000F20090E0922B892B31F08091F10081936150710991F78091E8008B778093E800B1
:207C2000DCCF8EB3882351F0853051F08091E80080FFF7CF80E0089581E0089582E008953E
:207C400083E008950F931F93CF93DF9300D0CDB7DEB7ECEBF1E088E08E0F9091F100919330
:207C60008E13FBCF22DB8091E80083FFD0C08091BC01E091BD014E2F50E04A30510508F01F
:207C8000C6C0FA01EA5AF74CE9C0823809F0BFC08091C00187708093E9008091EB0010929E
:207CA000E9009091E800977F9093E80085FB882780F98093F1001092F10087C0982F9D7F48
:207CC00009F0A5C0823009F0A2C08091BE01811129C08091C001877009F499C08093E900D3
:207CE0009091EB0090FF1EC09091BD01933021F48091EB00806214C09091EB009061909382
:207D0000EB0021E030E0A90102C0440F551F8A95E2F74093EA001092EA008091EB0088600F
:207D20008093EB001092E9008091E800877F50C081116DC01091BE011F770FB7F894809193
:207D4000E800877F8093E800C1DD8091E80080FFFCCF8091E3008078812B8093E3008068E3
:207D60008093E300111102C082E001C083E08EBB0FBF4DC08058823008F049C0AE014F5F97
:207D80005F4F6091C0018091BE019091BF0159DDBC01009709F43BC09091E800977F90930E
:207DA000E80089819A81B3DE8091E8008B778093E8002DC0803859F58091E800877F80932A
:207DC000E8008091BA018093F1008091E8008E778093E8007BDD1BC0811119C09091BE0174
:207DE0009230A8F48091E800877F8093E8009093BA016CDD8091BA01811106C08091E300EC
:207E000087FD02C081E001C084E08EBB42DA8091E80083FF0AC08091EB0080628093EB0010
:207E20008091E800877F8093E8000F900F90DF91CF911F910F9108950895CF938EB3882362
:207E400059F0C091E900C7701092E9008091E80083FDF8DEC093E900CF910895EE0FFF1F3A
:207E60000590F491E02D0994F999FECF92BD81BDF89A992780B50895262FF999FECF1FBAA1
:207E800092BD81BD20BD0FB6F894FA9AF99A0FBE01960895F894FFCF7777010000000000B6
:207EA00000081C03410072006100630068006E006900640020004C006100620073000000DF
:207EC00026035400730075006E0061006D006900200042006F006F0074006C006F006100A8
:207EE00064006500720000000403090409023E0002010080320904000001020201000524F9
:207F0000001001042402040524060001070582030800FF09040100020A000000070504022E
:207F20001000010705830210000112011001020000080912B61A0100020100014341544553
:067F400052494E41000011
:040000050000700087
:00000001FF
